{
  "address": "0x38d464DaE51409079D9B2553b162773A16E26643",
  "abi": [
    {
      "inputs": [],
      "stateMutability": "nonpayable",
      "type": "constructor"
    },
    {
      "inputs": [],
      "name": "InvalidShortString",
      "type": "error"
    },
    {
      "inputs": [
        {
          "internalType": "string",
          "name": "str",
          "type": "string"
        }
      ],
      "name": "StringTooLong",
      "type": "error"
    },
    {
      "anonymous": false,
      "inputs": [
        {
          "indexed": true,
          "internalType": "address",
          "name": "owner",
          "type": "address"
        },
        {
          "indexed": true,
          "internalType": "address",
          "name": "spender",
          "type": "address"
        },
        {
          "indexed": false,
          "internalType": "uint256",
          "name": "value",
          "type": "uint256"
        }
      ],
      "name": "Approval",
      "type": "event"
    },
    {
      "anonymous": false,
      "inputs": [],
      "name": "EIP712DomainChanged",
      "type": "event"
    },
    {
      "anonymous": false,
      "inputs": [
        {
          "indexed": true,
          "internalType": "address",
          "name": "previousOwner",
          "type": "address"
        },
        {
          "indexed": true,
          "internalType": "address",
          "name": "newOwner",
          "type": "address"
        }
      ],
      "name": "OwnershipTransferred",
      "type": "event"
    },
    {
      "anonymous": false,
      "inputs": [
        {
          "indexed": true,
          "internalType": "address",
          "name": "from",
          "type": "address"
        },
        {
          "indexed": true,
          "internalType": "address",
          "name": "to",
          "type": "address"
        },
        {
          "indexed": false,
          "internalType": "uint256",
          "name": "value",
          "type": "uint256"
        }
      ],
      "name": "Transfer",
      "type": "event"
    },
    {
      "inputs": [],
      "name": "DOMAIN_SEPARATOR",
      "outputs": [
        {
          "internalType": "bytes32",
          "name": "",
          "type": "bytes32"
        }
      ],
      "stateMutability": "view",
      "type": "function"
    },
    {
      "inputs": [],
      "name": "NODARY_AIRNODE_ADDRESS",
      "outputs": [
        {
          "internalType": "address",
          "name": "",
          "type": "address"
        }
      ],
      "stateMutability": "view",
      "type": "function"
    },
    {
      "inputs": [
        {
          "internalType": "address",
          "name": "owner",
          "type": "address"
        },
        {
          "internalType": "address",
          "name": "spender",
          "type": "address"
        }
      ],
      "name": "allowance",
      "outputs": [
        {
          "internalType": "uint256",
          "name": "",
          "type": "uint256"
        }
      ],
      "stateMutability": "view",
      "type": "function"
    },
    {
      "inputs": [
        {
          "internalType": "address",
          "name": "spender",
          "type": "address"
        },
        {
          "internalType": "uint256",
          "name": "amount",
          "type": "uint256"
        }
      ],
      "name": "approve",
      "outputs": [
        {
          "internalType": "bool",
          "name": "",
          "type": "bool"
        }
      ],
      "stateMutability": "nonpayable",
      "type": "function"
    },
    {
      "inputs": [
        {
          "internalType": "address",
          "name": "account",
          "type": "address"
        }
      ],
      "name": "balanceOf",
      "outputs": [
        {
          "internalType": "uint256",
          "name": "",
          "type": "uint256"
        }
      ],
      "stateMutability": "view",
      "type": "function"
    },
    {
      "inputs": [],
      "name": "decimals",
      "outputs": [
        {
          "internalType": "uint8",
          "name": "",
          "type": "uint8"
        }
      ],
      "stateMutability": "view",
      "type": "function"
    },
    {
      "inputs": [
        {
          "internalType": "address",
          "name": "spender",
          "type": "address"
        },
        {
          "internalType": "uint256",
          "name": "subtractedValue",
          "type": "uint256"
        }
      ],
      "name": "decreaseAllowance",
      "outputs": [
        {
          "internalType": "bool",
          "name": "",
          "type": "bool"
        }
      ],
      "stateMutability": "nonpayable",
      "type": "function"
    },
    {
      "inputs": [],
      "name": "eip712Domain",
      "outputs": [
        {
          "internalType": "bytes1",
          "name": "fields",
          "type": "bytes1"
        },
        {
          "internalType": "string",
          "name": "name",
          "type": "string"
        },
        {
          "internalType": "string",
          "name": "version",
          "type": "string"
        },
        {
          "internalType": "uint256",
          "name": "chainId",
          "type": "uint256"
        },
        {
          "internalType": "address",
          "name": "verifyingContract",
          "type": "address"
        },
        {
          "internalType": "bytes32",
          "name": "salt",
          "type": "bytes32"
        },
        {
          "internalType": "uint256[]",
          "name": "extensions",
          "type": "uint256[]"
        }
      ],
      "stateMutability": "view",
      "type": "function"
    },
    {
      "inputs": [
        {
          "internalType": "address",
          "name": "spender",
          "type": "address"
        },
        {
          "internalType": "uint256",
          "name": "addedValue",
          "type": "uint256"
        }
      ],
      "name": "increaseAllowance",
      "outputs": [
        {
          "internalType": "bool",
          "name": "",
          "type": "bool"
        }
      ],
      "stateMutability": "nonpayable",
      "type": "function"
    },
    {
      "inputs": [
        {
          "internalType": "uint256",
          "name": "timestamp",
          "type": "uint256"
        },
        {
          "internalType": "bytes",
          "name": "data",
          "type": "bytes"
        },
        {
          "internalType": "bytes",
          "name": "signature",
          "type": "bytes"
        }
      ],
      "name": "mint",
      "outputs": [],
      "stateMutability": "payable",
      "type": "function"
    },
    {
      "inputs": [],
      "name": "name",
      "outputs": [
        {
          "internalType": "string",
          "name": "",
          "type": "string"
        }
      ],
      "stateMutability": "view",
      "type": "function"
    },
    {
      "inputs": [],
      "name": "nodaryEthUsdTemplateId",
      "outputs": [
        {
          "internalType": "bytes32",
          "name": "",
          "type": "bytes32"
        }
      ],
      "stateMutability": "view",
      "type": "function"
    },
    {
      "inputs": [
        {
          "internalType": "address",
          "name": "owner",
          "type": "address"
        }
      ],
      "name": "nonces",
      "outputs": [
        {
          "internalType": "uint256",
          "name": "",
          "type": "uint256"
        }
      ],
      "stateMutability": "view",
      "type": "function"
    },
    {
      "inputs": [],
      "name": "owner",
      "outputs": [
        {
          "internalType": "address",
          "name": "",
          "type": "address"
        }
      ],
      "stateMutability": "view",
      "type": "function"
    },
    {
      "inputs": [
        {
          "internalType": "address",
          "name": "owner",
          "type": "address"
        },
        {
          "internalType": "address",
          "name": "spender",
          "type": "address"
        },
        {
          "internalType": "uint256",
          "name": "value",
          "type": "uint256"
        },
        {
          "internalType": "uint256",
          "name": "deadline",
          "type": "uint256"
        },
        {
          "internalType": "uint8",
          "name": "v",
          "type": "uint8"
        },
        {
          "internalType": "bytes32",
          "name": "r",
          "type": "bytes32"
        },
        {
          "internalType": "bytes32",
          "name": "s",
          "type": "bytes32"
        }
      ],
      "name": "permit",
      "outputs": [],
      "stateMutability": "nonpayable",
      "type": "function"
    },
    {
      "inputs": [],
      "name": "renounceOwnership",
      "outputs": [],
      "stateMutability": "nonpayable",
      "type": "function"
    },
    {
      "inputs": [],
      "name": "symbol",
      "outputs": [
        {
          "internalType": "string",
          "name": "",
          "type": "string"
        }
      ],
      "stateMutability": "view",
      "type": "function"
    },
    {
      "inputs": [],
      "name": "totalSupply",
      "outputs": [
        {
          "internalType": "uint256",
          "name": "",
          "type": "uint256"
        }
      ],
      "stateMutability": "view",
      "type": "function"
    },
    {
      "inputs": [
        {
          "internalType": "address",
          "name": "to",
          "type": "address"
        },
        {
          "internalType": "uint256",
          "name": "amount",
          "type": "uint256"
        }
      ],
      "name": "transfer",
      "outputs": [
        {
          "internalType": "bool",
          "name": "",
          "type": "bool"
        }
      ],
      "stateMutability": "nonpayable",
      "type": "function"
    },
    {
      "inputs": [
        {
          "internalType": "address",
          "name": "from",
          "type": "address"
        },
        {
          "internalType": "address",
          "name": "to",
          "type": "address"
        },
        {
          "internalType": "uint256",
          "name": "amount",
          "type": "uint256"
        }
      ],
      "name": "transferFrom",
      "outputs": [
        {
          "internalType": "bool",
          "name": "",
          "type": "bool"
        }
      ],
      "stateMutability": "nonpayable",
      "type": "function"
    },
    {
      "inputs": [
        {
          "internalType": "address",
          "name": "newOwner",
          "type": "address"
        }
      ],
      "name": "transferOwnership",
      "outputs": [],
      "stateMutability": "nonpayable",
      "type": "function"
    },
    {
      "inputs": [
        {
          "internalType": "address payable",
          "name": "destination",
          "type": "address"
        },
        {
          "internalType": "uint256",
          "name": "amount",
          "type": "uint256"
        }
      ],
      "name": "withdraw",
      "outputs": [],
      "stateMutability": "nonpayable",
      "type": "function"
    }
  ],
  "transactionHash": "0x4a81c921a128399089083fe8786a9f79d9b431ea6fa6c14855e7389766ef0add",
  "args": [],
  "numDeployments": 1,
  "solcInputHash": "f89f9f52cd372d8550d6045c6c67a1b2",
  "bytecode": "0x6101806040526200001a661155120bd554d160ca1b620001b6565b610160523480156200002b57600080fd5b506040518060400160405280600c81526020016b546573746e6574205553444360a01b81525080604051806040016040528060018152602001601960f91b8152506040518060400160405280600c81526020016b546573746e6574205553444360a01b81525060405180604001604052806008815260200167746573745553444360c01b8152508160039081620000c391906200040d565b506004620000d282826200040d565b505050620000f06005836200027760201b62000c8e1790919060201c565b610120526200010d81600662000277602090811b62000c8e17901c565b61014052815160208084019190912060e052815190820120610100524660a0526200019b60e05161010051604080517f8b73c3c69bb8fe3d512ecc4cf759cc79239f7b179b0ffacaa9a75d522b39400f60208201529081019290925260608201524660808201523060a082015260009060c00160405160208183030381529060405280519060200120905090565b60805250503060c05250620001b033620002c7565b62000581565b6000604051602001620001ff906040808252600690820152654e6f6461727960d01b6060820152608060208201819052600490820152631999595960e21b60a082015260c00190565b60408051808303601f19018152828252805160209182012061317360f01b91840191909152636e616d6560e01b83830152606080840186905282518085039091018152608084019092526200025a9290919060a001620004ff565b604051602081830303815290604052805190602001209050919050565b600060208351101562000297576200028f8362000319565b9050620002c1565b82620002ae836200036560201b62000cbf1760201c565b90620002bb90826200040d565b5060ff90505b92915050565b600980546001600160a01b038381166001600160a01b0319831681179093556040519116919082907f8be0079c531659141344cd1fd0a4f28419497f9722a3daafe3b4186f6b6457e090600090a35050565b600080829050601f8151111562000350578260405163305a27a960e01b815260040162000347919062000527565b60405180910390fd5b80516200035d826200055c565b179392505050565b90565b634e487b7160e01b600052604160045260246000fd5b600181811c908216806200039357607f821691505b602082108103620003b457634e487b7160e01b600052602260045260246000fd5b50919050565b601f8211156200040857600081815260208120601f850160051c81016020861015620003e35750805b601f850160051c820191505b818110156200040457828155600101620003ef565b5050505b505050565b81516001600160401b0381111562000429576200042962000368565b62000441816200043a84546200037e565b84620003ba565b602080601f831160018114620004795760008415620004605750858301515b600019600386901b1c1916600185901b17855562000404565b600085815260208120601f198616915b82811015620004aa5788860151825594840194600190910190840162000489565b5085821015620004c95787850151600019600388901b60f8161c191681555b5050505050600190811b01905550565b60005b83811015620004f6578181015183820152602001620004dc565b50506000910152565b8281526000825162000519816020850160208701620004d9565b919091016020019392505050565b602081526000825180602084015262000548816040850160208701620004d9565b601f01601f19169190910160400192915050565b80516020808301519190811015620003b45760001960209190910360031b1b16919050565b60805160a05160c05160e05161010051610120516101405161016051611f97620005ee600039600081816103a601526107fe0152600061061f015260006105f4015260006111730152600061114b015260006110a6015260006110d0015260006110fa0152611f976000f3fe6080604052600436106101755760003560e01c80638da5cb5b116100cb578063aa9bc6b51161007f578063dd62ed3e11610059578063dd62ed3e14610410578063f2fde38b14610456578063f3fef3a31461047657600080fd5b8063aa9bc6b514610394578063ac93ab42146103c8578063d505accf146103f057600080fd5b8063a3cba09a116100b0578063a3cba09a14610341578063a457c2d714610354578063a9059cbb1461037457600080fd5b80638da5cb5b146102fa57806395d89b411461032c57600080fd5b80633644e5151161012d578063715018a611610107578063715018a61461029b5780637ecebe00146102b257806384b0196e146102d257600080fd5b80633644e51514610230578063395093511461024557806370a082311461026557600080fd5b806318160ddd1161015e57806318160ddd146101d557806323b872dd146101f4578063313ce5671461021457600080fd5b806306fdde031461017a578063095ea7b3146101a5575b600080fd5b34801561018657600080fd5b5061018f610496565b60405161019c9190611950565b60405180910390f35b3480156101b157600080fd5b506101c56101c036600461197f565b610528565b604051901515815260200161019c565b3480156101e157600080fd5b506002545b60405190815260200161019c565b34801561020057600080fd5b506101c561020f3660046119ab565b610542565b34801561022057600080fd5b506040516006815260200161019c565b34801561023c57600080fd5b506101e6610566565b34801561025157600080fd5b506101c561026036600461197f565b610575565b34801561027157600080fd5b506101e66102803660046119ec565b6001600160a01b031660009081526020819052604090205490565b3480156102a757600080fd5b506102b06105b4565b005b3480156102be57600080fd5b506101e66102cd3660046119ec565b6105c8565b3480156102de57600080fd5b506102e76105e6565b60405161019c9796959493929190611a09565b34801561030657600080fd5b506009546001600160a01b03165b6040516001600160a01b03909116815260200161019c565b34801561033857600080fd5b5061018f61068b565b6102b061034f366004611afd565b61069a565b34801561036057600080fd5b506101c561036f36600461197f565b6109c3565b34801561038057600080fd5b506101c561038f36600461197f565b610a6d565b3480156103a057600080fd5b506101e67f000000000000000000000000000000000000000000000000000000000000000081565b3480156103d457600080fd5b5061031473c52eea00154b4ff1ebbf8ba39fde37f1ac3b9fd481565b3480156103fc57600080fd5b506102b061040b366004611b77565b610a7b565b34801561041c57600080fd5b506101e661042b366004611bee565b6001600160a01b03918216600090815260016020908152604080832093909416825291909152205490565b34801561046257600080fd5b506102b06104713660046119ec565b610bdf565b34801561048257600080fd5b506102b061049136600461197f565b610c6f565b6060600380546104a590611c27565b80601f01602080910402602001604051908101604052809291908181526020018280546104d190611c27565b801561051e5780601f106104f35761010080835404028352916020019161051e565b820191906000526020600020905b81548152906001019060200180831161050157829003601f168201915b5050505050905090565b600033610536818585610cc2565b60019150505b92915050565b600033610550858285610e1a565b61055b858585610eac565b506001949350505050565b6000610570611099565b905090565b3360008181526001602090815260408083206001600160a01b038716845290915281205490919061053690829086906105af908790611c71565b610cc2565b6105bc6111c4565b6105c6600061121e565b565b6001600160a01b03811660009081526007602052604081205461053c565b60006060808280808361061a7f00000000000000000000000000000000000000000000000000000000000000006005611288565b6106457f00000000000000000000000000000000000000000000000000000000000000006006611288565b604080516000808252602082019092527f0f000000000000000000000000000000000000000000000000000000000000009b939a50919850469750309650945092509050565b6060600480546104a590611c27565b428511156106ef5760405162461bcd60e51b815260206004820152601b60248201527f4554482f55534420726174652069732066726f6d20667574757265000000000060448201526064015b60405180910390fd5b426106fc8661012c611c71565b101561074a5760405162461bcd60e51b815260206004820152601560248201527f4554482f5553442072617465206973207374616c65000000000000000000000060448201526064016106e6565b6020831461079a5760405162461bcd60e51b815260206004820152601a60248201527f44617461206c656e677468206973206e6f7420636f727265637400000000000060448201526064016106e6565b73c52eea00154b4ff1ebbf8ba39fde37f1ac3b9fd46001600160a01b031661087b83838080601f01602080910402602001604051908101604052809392919081815260200183838082843760009201919091525050604051610875925061082c91507f0000000000000000000000000000000000000000000000000000000000000000908b908b908b90602001611c9a565b604051602081830303815290604052805190602001207f19457468657265756d205369676e6564204d6573736167653a0a3332000000006000908152601c91909152603c902090565b9061132c565b6001600160a01b0316146108d15760405162461bcd60e51b815260206004820152601260248201527f5369676e6174757265206d69736d61746368000000000000000000000000000060448201526064016106e6565b60006108df84860186611cbb565b9050600081136109315760405162461bcd60e51b815260206004820152601860248201527f4554482f5553442072617465206973206e65676174697665000000000000000060448201526064016106e6565b600061093f60066024611cd4565b61094a90600a611dd1565b6109548334611de0565b61095e9190611df7565b9050600081116109b05760405162461bcd60e51b815260206004820152601760248201527f446964206e6f742073656e6420656e6f7567682045544800000000000000000060448201526064016106e6565b6109ba3382611350565b50505050505050565b3360008181526001602090815260408083206001600160a01b038716845290915281205490919083811015610a605760405162461bcd60e51b815260206004820152602560248201527f45524332303a2064656372656173656420616c6c6f77616e63652062656c6f7760448201527f207a65726f00000000000000000000000000000000000000000000000000000060648201526084016106e6565b61055b8286868403610cc2565b600033610536818585610eac565b83421115610acb5760405162461bcd60e51b815260206004820152601d60248201527f45524332305065726d69743a206578706972656420646561646c696e6500000060448201526064016106e6565b60007f6e71edae12b1b97f4d1f60370fef10105fa2faae0126114a169c64845d6126c9888888610afa8c61140f565b6040805160208101969096526001600160a01b0394851690860152929091166060840152608083015260a082015260c0810186905260e0016040516020818303038152906040528051906020012090506000610b5582611437565b90506000610b658287878761147f565b9050896001600160a01b0316816001600160a01b031614610bc85760405162461bcd60e51b815260206004820152601e60248201527f45524332305065726d69743a20696e76616c6964207369676e6174757265000060448201526064016106e6565b610bd38a8a8a610cc2565b50505050505050505050565b610be76111c4565b6001600160a01b038116610c635760405162461bcd60e51b815260206004820152602660248201527f4f776e61626c653a206e6577206f776e657220697320746865207a65726f206160448201527f646472657373000000000000000000000000000000000000000000000000000060648201526084016106e6565b610c6c8161121e565b50565b610c776111c4565b610c8a6001600160a01b038316826114a7565b5050565b6000602083511015610caa57610ca3836115c5565b905061053c565b81610cb58482611e67565b5060ff905061053c565b90565b6001600160a01b038316610d3d5760405162461bcd60e51b8152602060048201526024808201527f45524332303a20617070726f76652066726f6d20746865207a65726f2061646460448201527f726573730000000000000000000000000000000000000000000000000000000060648201526084016106e6565b6001600160a01b038216610db95760405162461bcd60e51b815260206004820152602260248201527f45524332303a20617070726f766520746f20746865207a65726f20616464726560448201527f737300000000000000000000000000000000000000000000000000000000000060648201526084016106e6565b6001600160a01b0383811660008181526001602090815260408083209487168084529482529182902085905590518481527f8c5be1e5ebec7d5bd14f71427d1e84f3dd0314c0f7b2291e5b200ac8c7c3b925910160405180910390a3505050565b6001600160a01b038381166000908152600160209081526040808320938616835292905220546000198114610ea65781811015610e995760405162461bcd60e51b815260206004820152601d60248201527f45524332303a20696e73756666696369656e7420616c6c6f77616e636500000060448201526064016106e6565b610ea68484848403610cc2565b50505050565b6001600160a01b038316610f285760405162461bcd60e51b815260206004820152602560248201527f45524332303a207472616e736665722066726f6d20746865207a65726f20616460448201527f647265737300000000000000000000000000000000000000000000000000000060648201526084016106e6565b6001600160a01b038216610fa45760405162461bcd60e51b815260206004820152602360248201527f45524332303a207472616e7366657220746f20746865207a65726f206164647260448201527f657373000000000000000000000000000000000000000000000000000000000060648201526084016106e6565b6001600160a01b038316600090815260208190526040902054818110156110335760405162461bcd60e51b815260206004820152602660248201527f45524332303a207472616e7366657220616d6f756e742065786365656473206260448201527f616c616e6365000000000000000000000000000000000000000000000000000060648201526084016106e6565b6001600160a01b03848116600081815260208181526040808320878703905593871680835291849020805487019055925185815290927fddf252ad1be2c89b69c2b068fc378daa952ba7f163c4a11628f55a4df523b3ef910160405180910390a3610ea6565b6000306001600160a01b037f0000000000000000000000000000000000000000000000000000000000000000161480156110f257507f000000000000000000000000000000000000000000000000000000000000000046145b1561111c57507f000000000000000000000000000000000000000000000000000000000000000090565b610570604080517f8b73c3c69bb8fe3d512ecc4cf759cc79239f7b179b0ffacaa9a75d522b39400f60208201527f0000000000000000000000000000000000000000000000000000000000000000918101919091527f000000000000000000000000000000000000000000000000000000000000000060608201524660808201523060a082015260009060c00160405160208183030381529060405280519060200120905090565b6009546001600160a01b031633146105c65760405162461bcd60e51b815260206004820181905260248201527f4f776e61626c653a2063616c6c6572206973206e6f7420746865206f776e657260448201526064016106e6565b600980546001600160a01b038381167fffffffffffffffffffffffff0000000000000000000000000000000000000000831681179093556040519116919082907f8be0079c531659141344cd1fd0a4f28419497f9722a3daafe3b4186f6b6457e090600090a35050565b606060ff831461129b57610ca38361161c565b8180546112a790611c27565b80601f01602080910402602001604051908101604052809291908181526020018280546112d390611c27565b80156113205780601f106112f557610100808354040283529160200191611320565b820191906000526020600020905b81548152906001019060200180831161130357829003601f168201915b5050505050905061053c565b600080600061133b858561165b565b91509150611348816116a0565b509392505050565b6001600160a01b0382166113a65760405162461bcd60e51b815260206004820152601f60248201527f45524332303a206d696e7420746f20746865207a65726f20616464726573730060448201526064016106e6565b80600260008282546113b89190611c71565b90915550506001600160a01b038216600081815260208181526040808320805486019055518481527fddf252ad1be2c89b69c2b068fc378daa952ba7f163c4a11628f55a4df523b3ef910160405180910390a35050565b6001600160a01b03811660009081526007602052604090208054600181018255905b50919050565b600061053c611444611099565b836040517f19010000000000000000000000000000000000000000000000000000000000008152600281019290925260228201526042902090565b600080600061149087878787611805565b9150915061149d816116a0565b5095945050505050565b804710156114f75760405162461bcd60e51b815260206004820152601d60248201527f416464726573733a20696e73756666696369656e742062616c616e636500000060448201526064016106e6565b6000826001600160a01b03168260405160006040518083038185875af1925050503d8060008114611544576040519150601f19603f3d011682016040523d82523d6000602084013e611549565b606091505b50509050806115c05760405162461bcd60e51b815260206004820152603a60248201527f416464726573733a20756e61626c6520746f2073656e642076616c75652c207260448201527f6563697069656e74206d6179206861766520726576657274656400000000000060648201526084016106e6565b505050565b600080829050601f8151111561160957826040517f305a27a90000000000000000000000000000000000000000000000000000000081526004016106e69190611950565b805161161482611f27565b179392505050565b60606000611629836118c9565b604080516020808252818301909252919250600091906020820181803683375050509182525060208101929092525090565b60008082516041036116915760208301516040840151606085015160001a61168587828585611805565b94509450505050611699565b506000905060025b9250929050565b60008160048111156116b4576116b4611f4b565b036116bc5750565b60018160048111156116d0576116d0611f4b565b0361171d5760405162461bcd60e51b815260206004820152601860248201527f45434453413a20696e76616c6964207369676e6174757265000000000000000060448201526064016106e6565b600281600481111561173157611731611f4b565b0361177e5760405162461bcd60e51b815260206004820152601f60248201527f45434453413a20696e76616c6964207369676e6174757265206c656e6774680060448201526064016106e6565b600381600481111561179257611792611f4b565b03610c6c5760405162461bcd60e51b815260206004820152602260248201527f45434453413a20696e76616c6964207369676e6174757265202773272076616c60448201527f756500000000000000000000000000000000000000000000000000000000000060648201526084016106e6565b6000807f7fffffffffffffffffffffffffffffff5d576e7357a4501ddfe92f46681b20a083111561183c57506000905060036118c0565b6040805160008082526020820180845289905260ff881692820192909252606081018690526080810185905260019060a0016020604051602081039080840390855afa158015611890573d6000803e3d6000fd5b5050604051601f1901519150506001600160a01b0381166118b9576000600192509250506118c0565b9150600090505b94509492505050565b600060ff8216601f81111561053c576040517fb3512b0c00000000000000000000000000000000000000000000000000000000815260040160405180910390fd5b6000815180845260005b8181101561193057602081850181015186830182015201611914565b506000602082860101526020601f19601f83011685010191505092915050565b602081526000611963602083018461190a565b9392505050565b6001600160a01b0381168114610c6c57600080fd5b6000806040838503121561199257600080fd5b823561199d8161196a565b946020939093013593505050565b6000806000606084860312156119c057600080fd5b83356119cb8161196a565b925060208401356119db8161196a565b929592945050506040919091013590565b6000602082840312156119fe57600080fd5b81356119638161196a565b7fff00000000000000000000000000000000000000000000000000000000000000881681526000602060e081840152611a4560e084018a61190a565b8381036040850152611a57818a61190a565b606085018990526001600160a01b038816608086015260a0850187905284810360c0860152855180825283870192509083019060005b81811015611aa957835183529284019291840191600101611a8d565b50909c9b505050505050505050505050565b60008083601f840112611acd57600080fd5b50813567ffffffffffffffff811115611ae557600080fd5b60208301915083602082850101111561169957600080fd5b600080600080600060608688031215611b1557600080fd5b85359450602086013567ffffffffffffffff80821115611b3457600080fd5b611b4089838a01611abb565b90965094506040880135915080821115611b5957600080fd5b50611b6688828901611abb565b969995985093965092949392505050565b600080600080600080600060e0888a031215611b9257600080fd5b8735611b9d8161196a565b96506020880135611bad8161196a565b95506040880135945060608801359350608088013560ff81168114611bd157600080fd5b9699959850939692959460a0840135945060c09093013592915050565b60008060408385031215611c0157600080fd5b8235611c0c8161196a565b91506020830135611c1c8161196a565b809150509250929050565b600181811c90821680611c3b57607f821691505b60208210810361143157634e487b7160e01b600052602260045260246000fd5b634e487b7160e01b600052601160045260246000fd5b8082018082111561053c5761053c611c5b565b634e487b7160e01b600052604160045260246000fd5b84815283602082015281836040830137600091016040019081529392505050565b600060208284031215611ccd57600080fd5b5035919050565b60ff828116828216039081111561053c5761053c611c5b565b600181815b80851115611d28578160001904821115611d0e57611d0e611c5b565b80851615611d1b57918102915b93841c9390800290611cf2565b509250929050565b600082611d3f5750600161053c565b81611d4c5750600061053c565b8160018114611d625760028114611d6c57611d88565b600191505061053c565b60ff841115611d7d57611d7d611c5b565b50506001821b61053c565b5060208310610133831016604e8410600b8410161715611dab575081810a61053c565b611db58383611ced565b8060001904821115611dc957611dc9611c5b565b029392505050565b600061196360ff841683611d30565b808202811582820484141761053c5761053c611c5b565b600082611e1457634e487b7160e01b600052601260045260246000fd5b500490565b601f8211156115c057600081815260208120601f850160051c81016020861015611e405750805b601f850160051c820191505b81811015611e5f57828155600101611e4c565b505050505050565b815167ffffffffffffffff811115611e8157611e81611c84565b611e9581611e8f8454611c27565b84611e19565b602080601f831160018114611eca5760008415611eb25750858301515b600019600386901b1c1916600185901b178555611e5f565b600085815260208120601f198616915b82811015611ef957888601518255948401946001909101908401611eda565b5085821015611f175787850151600019600388901b60f8161c191681555b5050505050600190811b01905550565b805160208083015191908110156114315760001960209190910360031b1b16919050565b634e487b7160e01b600052602160045260246000fdfea2646970667358221220327f763905ad79b781198c044c5624be1e9f705904c0fbe5f57fe8e553414d4064736f6c63430008110033",
  "devdoc": {
    "kind": "dev",
    "methods": {
      "DOMAIN_SEPARATOR()": {
        "details": "See {IERC20Permit-DOMAIN_SEPARATOR}."
      },
      "allowance(address,address)": {
        "details": "See {IERC20-allowance}."
      },
      "approve(address,uint256)": {
        "details": "See {IERC20-approve}. NOTE: If `amount` is the maximum `uint256`, the allowance is not updated on `transferFrom`. This is semantically equivalent to an infinite approval. Requirements: - `spender` cannot be the zero address."
      },
      "balanceOf(address)": {
        "details": "See {IERC20-balanceOf}."
      },
      "decimals()": {
        "details": "Returns the number of decimals used to get its user representation. For example, if `decimals` equals `2`, a balance of `505` tokens should be displayed to a user as `5.05` (`505 / 10 ** 2`). Tokens usually opt for a value of 18, imitating the relationship between Ether and Wei. This is the default value returned by this function, unless it's overridden. NOTE: This information is only used for _display_ purposes: it in no way affects any of the arithmetic of the contract, including {IERC20-balanceOf} and {IERC20-transfer}."
      },
      "decreaseAllowance(address,uint256)": {
        "details": "Atomically decreases the allowance granted to `spender` by the caller. This is an alternative to {approve} that can be used as a mitigation for problems described in {IERC20-approve}. Emits an {Approval} event indicating the updated allowance. Requirements: - `spender` cannot be the zero address. - `spender` must have allowance for the caller of at least `subtractedValue`."
      },
      "eip712Domain()": {
        "details": "See {EIP-5267}. _Available since v4.9._"
      },
      "increaseAllowance(address,uint256)": {
        "details": "Atomically increases the allowance granted to `spender` by the caller. This is an alternative to {approve} that can be used as a mitigation for problems described in {IERC20-approve}. Emits an {Approval} event indicating the updated allowance. Requirements: - `spender` cannot be the zero address."
      },
      "name()": {
        "details": "Returns the name of the token."
      },
      "nonces(address)": {
        "details": "See {IERC20Permit-nonces}."
      },
      "owner()": {
        "details": "Returns the address of the current owner."
      },
      "permit(address,address,uint256,uint256,uint8,bytes32,bytes32)": {
        "details": "See {IERC20Permit-permit}."
      },
      "renounceOwnership()": {
        "details": "Leaves the contract without owner. It will not be possible to call `onlyOwner` functions. Can only be called by the current owner. NOTE: Renouncing ownership will leave the contract without an owner, thereby disabling any functionality that is only available to the owner."
      },
      "symbol()": {
        "details": "Returns the symbol of the token, usually a shorter version of the name."
      },
      "totalSupply()": {
        "details": "See {IERC20-totalSupply}."
      },
      "transfer(address,uint256)": {
        "details": "See {IERC20-transfer}. Requirements: - `to` cannot be the zero address. - the caller must have a balance of at least `amount`."
      },
      "transferFrom(address,address,uint256)": {
        "details": "See {IERC20-transferFrom}. Emits an {Approval} event indicating the updated allowance. This is not required by the EIP. See the note at the beginning of {ERC20}. NOTE: Does not update the allowance if the current allowance is the maximum `uint256`. Requirements: - `from` and `to` cannot be the zero address. - `from` must have a balance of at least `amount`. - the caller must have allowance for ``from``'s tokens of at least `amount`."
      },
      "transferOwnership(address)": {
        "details": "Transfers ownership of the contract to a new account (`newOwner`). Can only be called by the current owner."
      }
    },
    "version": 1
  },
  "userdoc": {
    "kind": "user",
    "methods": {},
    "version": 1
  },
  "storageLayout": {
    "storage": [
      {
        "astId": 229,
        "contract": "contracts/TestnetUsdc.sol:TestnetUsdc",
        "label": "_balances",
        "offset": 0,
        "slot": "0",
        "type": "t_mapping(t_address,t_uint256)"
      },
      {
        "astId": 235,
        "contract": "contracts/TestnetUsdc.sol:TestnetUsdc",
        "label": "_allowances",
        "offset": 0,
        "slot": "1",
        "type": "t_mapping(t_address,t_mapping(t_address,t_uint256))"
      },
      {
        "astId": 237,
        "contract": "contracts/TestnetUsdc.sol:TestnetUsdc",
        "label": "_totalSupply",
        "offset": 0,
        "slot": "2",
        "type": "t_uint256"
      },
      {
        "astId": 239,
        "contract": "contracts/TestnetUsdc.sol:TestnetUsdc",
        "label": "_name",
        "offset": 0,
        "slot": "3",
        "type": "t_string_storage"
      },
      {
        "astId": 241,
        "contract": "contracts/TestnetUsdc.sol:TestnetUsdc",
        "label": "_symbol",
        "offset": 0,
        "slot": "4",
        "type": "t_string_storage"
      },
      {
        "astId": 2319,
        "contract": "contracts/TestnetUsdc.sol:TestnetUsdc",
        "label": "_nameFallback",
        "offset": 0,
        "slot": "5",
        "type": "t_string_storage"
      },
      {
        "astId": 2321,
        "contract": "contracts/TestnetUsdc.sol:TestnetUsdc",
        "label": "_versionFallback",
        "offset": 0,
        "slot": "6",
        "type": "t_string_storage"
      },
      {
        "astId": 3487,
        "contract": "contracts/TestnetUsdc.sol:TestnetUsdc",
        "label": "_nonces",
        "offset": 0,
        "slot": "7",
        "type": "t_mapping(t_address,t_struct(Counter)1297_storage)"
      },
      {
        "astId": 3495,
        "contract": "contracts/TestnetUsdc.sol:TestnetUsdc",
        "label": "_PERMIT_TYPEHASH_DEPRECATED_SLOT",
        "offset": 0,
        "slot": "8",
        "type": "t_bytes32"
      },
      {
        "astId": 83,
        "contract": "contracts/TestnetUsdc.sol:TestnetUsdc",
        "label": "_owner",
        "offset": 0,
        "slot": "9",
        "type": "t_address"
      }
    ],
    "types": {
      "t_address": {
        "encoding": "inplace",
        "label": "address",
        "numberOfBytes": "20"
      },
      "t_bytes32": {
        "encoding": "inplace",
        "label": "bytes32",
        "numberOfBytes": "32"
      },
      "t_mapping(t_address,t_mapping(t_address,t_uint256))": {
        "encoding": "mapping",
        "key": "t_address",
        "label": "mapping(address => mapping(address => uint256))",
        "numberOfBytes": "32",
        "value": "t_mapping(t_address,t_uint256)"
      },
      "t_mapping(t_address,t_struct(Counter)1297_storage)": {
        "encoding": "mapping",
        "key": "t_address",
        "label": "mapping(address => struct Counters.Counter)",
        "numberOfBytes": "32",
        "value": "t_struct(Counter)1297_storage"
      },
      "t_mapping(t_address,t_uint256)": {
        "encoding": "mapping",
        "key": "t_address",
        "label": "mapping(address => uint256)",
        "numberOfBytes": "32",
        "value": "t_uint256"
      },
      "t_string_storage": {
        "encoding": "bytes",
        "label": "string",
        "numberOfBytes": "32"
      },
      "t_struct(Counter)1297_storage": {
        "encoding": "inplace",
        "label": "struct Counters.Counter",
        "members": [
          {
            "astId": 1296,
            "contract": "contracts/TestnetUsdc.sol:TestnetUsdc",
            "label": "_value",
            "offset": 0,
            "slot": "0",
            "type": "t_uint256"
          }
        ],
        "numberOfBytes": "32"
      },
      "t_uint256": {
        "encoding": "inplace",
        "label": "uint256",
        "numberOfBytes": "32"
      }
    }
  }
}